:1000000012C0189518951895189518951895189563
:100010001895189518951895189518951895189578
:100020001895189518958FE58DBFC8E3E0E24E2E20
:1000300084E08EBFD4E0F4E05F2EA89584B7082E4C
:10004000877F84BF88E1992781BD91BDEEEFF3E002
:10005000A0E6B0E088278D933197E9F7662483E81E
:1000600086B980EC87B98FEF87BB8FEF81BB379A5A
:1000700007B1007F07B907D1A0E6B0E08D939C934C
:1000800007B1007F016007B9FED0A2E6B0E08D9312
:100090009C93E2E6F0E0D190E080FF240027A4D119
:1000A00045D12F933F934F935F93E0E6F0E0D190DB
:1000B000E080FF24002798D15F914F913F912F91CD
:1000C00056D2EDE0F0E0A4E6B0E0F9D0EAE3F6E0E5
:1000D000ABD2E4E6F0E020D1B4D1EDE0F0E0A4E66C
:1000E000B0E0EDD0E4E6F0E017D1EEE3F6E09CD22C
:1000F000FAD010F009F001C00CC070916C007F774D
:1001000070936C00E4E6F0E017D1AAE6B0E0DD926F
:10011000EC92E4E6F0E000D1EEE3F6E085D2E3D045
:1001200008F01FC070916C00706870936C00E2E47E
:10013000F6E07AD2E4E6F0E0EFD0DCD1EDE0F0E0FA
:10014000A4E6B0E0BCD0E6E4F6E06ED2E4E6F0E08F
:10015000E3D0D0D1EDE0F0E0EFD0AAE6B0E0DD9260
:10016000EC9272E072BBAAE6B0E00D911C914AE0FD
:1001700050E057D0A8E6B0E00D931C9314D084E172
:1001800090E072D071E072BBAAE6B0E00D911C91D4
:100190004AE050E046D0A8E6B0E04D935C9303D02F
:1001A00067CFF894FFCFE2EDF1E0A8E6B0E08D91E3
:1001B0009C91A8E3B0E080D0ACE6B0E08C9187FBE6
:1001C000A8E3B0E08C9187F98C9384E090E04CD068
:1001D00008954079243019120278001000FC10D0E4
:1001E000089503D01ED001F8F9CF0024E89457FFFA
:1001F00002C009D0689400F80BD010F801240895CB
:1002000002D009D00895509540954F5F5F4F0895F3
:10021000E89417FF0895009510950F5F1F4F68949D
:100220000895352F242FE894452B11F468940895F0
:10023000512F402F0027112780E1440F551F001F29
:10024000111F021B130B416018F4020F131F4E7F86
:100250008A9599F708953197F1F70895689462F8AF
:100260000895E89462F80895EF93FF93EE27E82B42
:10027000E92B31F0EAEFF0E03197F1F70197D1F790
:10028000FF91EF910895369A3699FECF369A3699B6
:10029000FECF84B195B10895C89531960020089598
:1002A00091E005C092E003C094E001C098E0F4DF63
:1002B0000D929A95E1F70895E80FF91FF1CF94E0B8
:1002C00081918D939A95E1F70895B7FE089590E88E
:1002D000B91611F4D0FE08959FEFD91AE90AF90A68
:1002E00009F4039508950F928F939F93D216E30616
:1002F000F4060FB680E890E8802795270FBE89079F
:1003000039F00FB6892B87FD02C081E008260FBEA9
:100310009F918F910F900895D190E190F19001916C
:10032000089521913191419151910895502F2D2D92
:100330003E2D4F2D612F0895EFDF992711278F2D27
:10034000880F80E8F82A802F881F08F41FEF41F0FB
:100350008F57082F07FD04C0003240F08FEF01C017
:100360008827982FD82EE82EF82E09C08FE1801B01
:10037000082FF694E794D79497950A95D1F711230F
:1003800051F09095D094E094F09481E0980F8827F4
:10039000D81EE81EF81E0F2DFE2CED2CD92E089528
:1003A000D094E094F09491E0D90E9927E91EF91EBB
:1003B00010950895652F90E8440F551F5927990F00
:1003C00047956078102F90E8FF0C001F0927990FC0
:1003D000F794107800380895FF0C90E89027110FDB
:1003E0009795F794092F08951127BD2CDE2CEF2C3B
:1003F000F02E0EE1FF2039F4FE2CED2CDB2CBB247B
:100400000850C2F752C032F00A95BB0CDD1CEE1C3E
:10041000FF1CF9CF5ADFE0CF2DEC3CEC4CEC5DE358
:1004200066270FC079DF82DFDD24EE2490E8F92E05
:100430000FE307C076DF05C02227332740E251E4EF
:100440006627552351F1002381F1B4DF71F116279E
:10045000005850580894050B18F407FD03C025C038
:1004600007FD23C0469537952795F694E794D794D2
:1004700025D0FF202AF0DD0CEE1CFF1C015073F08C
:100480009D2D969548F0DD203AF4EE202AF491E077
:10049000D90E9927E91EF91E9FCF07C09FE7092FA4
:1004A000F92A9FEFD92EE92E0895DD24EE24FF24AA
:1004B0000027112708950FE79FEFF2CF9F9299240D
:1004C000AA24BB2488E1D216E306F40628F0D21A47
:1004D000E30AF40A089401C08894991CAA1CBB1C66
:1004E000DD0CEE1CFF1C8A9571F7D92CEA2CFB2C35
:1004F0009F9008955FDFD1F05038C1F01627005863
:10050000952F90580894091F12F418F40EC008F0A3
:100510000DC00DD0FF202AF0BB0CDD1CEE1CFF1C13
:1005200002C0039513F0D1DE57CFB8CFBECF9F9254
:10053000FF92EF928D2DFF24EE24DD24BB2493E067
:10054000849F1001829FB00CD11CE21CF31C839F7E
:10055000D00CE11C2224F21C9A9531F0BD2CDE2C2B
:10056000EF2CFF248F91ECCF9F900895DADE22DFED
:10057000503829F090E869270CC00AF045D02CCFFC
:100580005FE322273327442701C0CBDE13DF503837
:10059000B1F3003899F3902F951B8BF312F434D0FC
:1005A000FACF983118F0222733274427983028F0C3
:1005B000232F342F44279850F9CF992329F04695BB
:1005C000379527959A95D9F7912F962742F014D011
:1005D000B0F6F794E794D7940F5F8BF65FCF10D007
:1005E00051F008F4DDDEFF2052F2DD0CEE1CFF1CA2
:1005F0000150CBF753CF59CFD20EE31EF41E08950E
:10060000D21AE30AF40A0895DF92EF92FF920F9351
:100610001F93D22EE32EF42E052F162F6F915F918C
:100620004F913F912F91089537DE202D35DE302DEB
:1006300033DE402D31DE502D089500008040000053
:0A0640000000000080BF0000803FB2
:00000001FF
